:020000040800F2
:100000000050002021020008270200082B020008EF
:100010009D020008A1020008E9020008000000009B
:100020000000000000000000000000003103000894
:10003000350300080000000039030008CD0800085F
:100040004D0300084D0300084D0300084D03000850
:100050004D0300084D0300084D0300084D03000840
:100060004D0300084D0300084D0300084D03000830
:100070004D0300084D0300084D0300084D03000820
:100080004D0300084D0300084D0300084D03000810
:100090004D0300084D0300084D0300084D03000800
:1000A0004D0300084D0300084D0300084D030008F0
:1000B0004D0300084D0300084D0300084D030008E0
:1000C0004D0300084D0300084D0300084D030008D0
:1000D0004D0300084D0300084D0300084D030008C0
:1000E0004D0300084D0300084D0300080000000008
:1000F0000000000000000000000000000000000000
:1001000000000000000000005FF808F100B583B0B7
:1001100000F0AAF9304B314A1360314A1360314B79
:10012000314A32498B4204D21168196004330432D7
:10013000F7E72A4B1A682E4B9A4200D0FEE7284B6D
:100140001A682C4B9A42F9D1234B2B4A13602B4A45
:1001500013602B4B02E000221A600433294A9342B9
:10016000F9D3254B1B6813B9244B1B6803B1FEE779
:1001700000F086F9694601A800F022F9224C234BD1
:10018000E41AA4100025AC4214DC214C214BE41AE3
:10019000A4100025AC4213DC0099019800F0CEFBBE
:1001A00005461D4C1D4BE41AA410002C0EDC2846FD
:1001B00000F0E2F8154B53F8253098470135E2E797
:1001C000144B53F8253098470135E3E7013C134BB6
:1001D00053F824309847E8E7BABADECA0000002096
:1001E0008400002000000020ACBA00088800002035
:1001F0007856341232547698880000202801002066
:10020000880000202C0100207803000878030008F3
:1002100078030008780300087803000878030008D2
:1002200008B5FFF773FF00BEFEE71EF0040F0CBF1A
:10023000EFF30880EFF309807146414A10472DE93A
:10024000F04182B004468846124B5E6B9F6B9D6AFC
:100250001B6B13F0020F03D00E4BDB6A002B0CDB81
:100260000D4800F0B5F8CDF800803B4632462946EF
:10027000204600F009F900BEFEE74BF6AB6100F046
:100280007DF90028ECD0034B4FF00042DA6202B057
:10029000BDE8F08100ED00E02013000800BEFEE79D
:1002A0001EF0040F0CBFEFF30880EFF309807146D6
:1002B000244A10472DE9F04182B004468846084B95
:1002C0005E6B9F6B9D6A074800F082F8CDF8008056
:1002D0003B4632462946204600F0D6F800BEFEE7EF
:1002E00000ED00E0301300081EF0040F0CBFEFF328
:1002F0000880EFF309807146134A10472DE9F04159
:1003000082B004468846084B5E6B9F6B9D6A074827
:1003100000F05EF8CDF800803B4632462946204684
:1003200000F0B2F800BEFEE700ED00E03C1300086C
:1003300000BEFEE700BEFEE700BEFEE7704700001D
:100340003F020008B5020008FD02000800BEFEE7FB
:10035000ACBA00080000002088000020ACBA0008F9
:100360000000000000000000880000202C01002098
:08037000000000000000000085
:10037800FEE7000008B503460C4A12685AB10B4A5A
:100388001068033323F003030344094A934206D851
:10039800064A136008BD054A06491160EFE700F0F8
:1003A800FDFA0C2303604FF0FF30F3E78C000020C8
:1003B800004C00202C01002001230360014B0B603E
:1003C800704700BF040000200FB400B583B004AB31
:1003D80053F8042B01938021064800F011FB0028F4
:1003E80003DD0146034800F037F803B05DF804EB7D
:1003F80004B07047940000202DE9F04385B004460E
:100408000F4643560BB10E461EE0042528462146EA
:10041800ABBE0446384605B0BDE8F08314F9011BAD
:1004280004AA1A4402F8101C0133AB42F6D304AAFA
:100438001344002203F8102C4FF00408E946404604
:100448004946ABBE8046761B002EE3D03546102EBB
:1004580028BF10250023E8E708B5FFF7CDFF08BD42
:1004680008B500F0FDF8024A024B9A6008BD00BFCB
:100478000000000800ED00E008B500F019F908BD1B
:10048800F8B504460D4617461E462748FFF79CFF59
:1004980021682648FFF798FF61682548FFF794FF11
:1004A800A1682448FFF790FFE1682348FFF78CFF15
:1004B80021692248FFF788FF61692148FFF784FF17
:1004C800A1692048FFF780FFE1691F48FFF77CFF1B
:1004D8001E48FFF779FF29461D48FFF775FF1D4C99
:1004E800E16A1D48FFF770FF216B1C48FFF76CFF9E
:1004F800E16B1B48FFF768FF15F0800F0AD115F470
:10050800004F0CD11748FFF75FFF06991648FFF711
:100518005BFFF8BD39461548FFF756FFEFE7314650
:100528001348FFF751FFEDE7041200081412000802
:10053800241200083412000844120008541200085B
:10054800641200087412000884120008941200084B
:10055800A012000800ED00E0B0120008C012000868
:10056800D01200080013000808130008E012000861
:10057800F012000883691A888A4201D00020704767
:100588000268033A012A03D80233836101207047C5
:100598000020704782B00023019300932C4A13680F
:1005A80043F4803313602A4B1B6803F40033009331
:1005B800019B01330193009B1BB9019BB3F5A06F0D
:1005C800F1D1234B1B6813F4003F06D0012300939D
:1005D800009B012B04D002B0704700230093F7E77B
:1005E8001C4B1A6842F010021A601A6822F00302C3
:1005F8001A601A6842F002021A60A3F580535A681A
:100608005A605A685A605A6842F480625A605A6856
:1006180022F47C125A605A6842F4E8125A601A6846
:1006280042F080721A600A4B1B6813F0007FFAD000
:10063800074B5A6822F003025A605A6842F00202D5
:100648005A60034B5B6803F00C03082BF9D1C2E72F
:10065800001002400020024008B5FFF79BFF08BDCC
:1006680008B5104B1A6842F001021A6059680E4A20
:100678000A405A601A6822F0847222F480321A60A2
:100688001A6822F480221A605A6822F4FE025A601C
:100698004FF41F029A60FFF7DFFF044B4FF0006230
:1006A8009A6008BD001002400000FFF800ED00E06D
:1006B8001F4B5B6803F00C03042B15D0082B17D0D5
:1006C8001BB11C4B1C4A1A6002E01A4B1A4A1A60EA
:1006D800174B5B68C3F30313184AD35CDAB21549A6
:1006E8000B68D3400B607047124B134A1A60EFE750
:1006F8000F4A53685268C3F38343023312F4803FAE
:100708000AD00B4A526812F4003F0BD00C4A02FB85
:1007180003F3084A1360DBE7094A02FB03F3054ABF
:100728001360D5E7044A02FB03F3024A1360CFE7DC
:10073800001002401C00002000127A000C0000206B
:1007480000093D0010B4012824D018B1022841D076
:1007580010BC7047072910D90F29F9D8A1F108044E
:10076800E4B2A4000F23A3402A48016821EA030346
:1007780002FA04F119430160EAE789000F2303FA3A
:1007880001F0254C236823EA000302FA01F119431A
:100798002160DDE7072910D90F29D9D8A1F1080070
:1007A800C0B280000F2383401C4C216821EA030358
:1007B80002FA00F119432160CAE789000F2303FAFE
:1007C80001F0174C236823EA000302FA01F11943E8
:1007D8002160BDE7072910D90F29B9D8A1F108036D
:1007E800DBB29B000F2098400E4C216821EA0000E4
:1007F80002FA03F101432160AAE789000F2303FAF3
:1008080001F0094C236823EA000302FA01F11943B5
:1008180021609DE70408014000080140040C0140E4
:10082800000C01400410014000100140034B4FF43C
:1008380080321A60043301221A60704700100240A7
:100848001F291CD801280BD010B1022810D07047DE
:10085800012303FA01F10A4A13680B431360704736
:10086800012303FA01F1074A13680B431360704729
:10087800012303FA01F1044A13680B43136070471C
:10088800141002401C10024018100240014B0022B4
:100898001A60704710E000E0074B58601A6842F091
:1008A80001021A60054A1160054A012111701A688F
:1008B80042F002021A60704710E000E014010020C4
:1008C8001801002008B50A4B1B785BB9094B1A6858
:1008D80022F002021A601A6842F001021A6000222D
:1008E8005A609A60044B1B689847024B1B6808BD06
:1008F8001801002010E000E0140100200A4A1388C3
:100908009BB20A49C95C0A4B1960138801339BB230
:10091800138013889BB24AF22D72934200D070471D
:10092800014B00221A80FAE71A0100204C13000834
:100938000C08014008B5FFF779FF02210846FFF7C8
:100948007FFF022200210846FFF7FCFE0222012158
:100958000020FFF7F7FE022211460020FFF7F2FE03
:10096800022203210020FFF7EDFE022204210020CD
:10097800FFF7E8FE022205210020FFF7E3FE02222E
:1009880006210020FFF7DEFEFFF780FF02497D20E9
:10099800FFF782FFFEE700BF05090008014B186852
:1009A800704700BF2000002030B5141E05469BB0DC
:1009B800184605DA8B234FF0FF302B601BB030BD93
:1009C8004FF40273ADF80C300CBF234604F1FF332B
:1009D800029305934FF6FF7300910491ADF80E3022
:1009E80002461E9B6946284600F072F8431CBCBFAD
:1009F8008B232B60002CE1D00022009B1A70DDE7CE
:100A080007B5009313460A46014603480068FFF7F6
:100A1800CBFF03B05DF804FB200000202DE9F04770
:100A28008E6882469E420C469046994637D88A89F7
:100A380012F4906F31D00223256809696F1A65692D
:100A480005EB450595FBF3F509F101033B449D4290
:100A580038BF1D46530530D5294600F035FB0646FC
:100A680050B90C234FF0FF30CAF80030A38943F087
:100A78004003A381BDE8F0873A46216900F0B4FA43
:100A8800A38923F4906343F08003A38126613E4445
:100A980026604E466561ED1BA5604E4500D94E4661
:100AA80032464146206800F0AAFAA36800209B1B42
:100AB800A36023681E442660DCE72A4600F05EFB3C
:100AC80006460028E2D12169504600F0B1FAC8E78D
:100AD8002DE9F04F9DB003938B8980461D060C4687
:100AE80016460FD50B696BB9402100F0EDFA20606E
:100AF800206128B90C23C8F800304FF0FF30C7E058
:100B0800402363610023099320238DF82930302383
:100B18004FF0010B8DF82A3037463D4615F8013B5A
:100B28000BB1252B3ED1B7EB060A0BD05346324604
:100B380021464046FFF772FF013000F0A480099B70
:100B4800534409933B78002B00F09D8000234FF01D
:100B5800FF32CDE90523049307938DF853301A9398
:100B68002F46052217F8011B4F4800F02FFA049B67
:100B7800D0B9D90644BF20228DF853201A0744BFA4
:100B88002B228DF853202A782A2A15D02F460020A8
:100B98000A25079A394611F8013B303B092B4DD9F4
:100BA800B8B10FE02F46B8E73F4A3D46801A0BFA26
:100BB80000F018430490D3E7039A111D12680391BB
:100BC800002A01DB079204E0524243F00203079235
:100BD80004933B782E2B0CD17B782A2B33D1039BA3
:100BE80002371A1D1B680392002BB8BF4FF0FF3362
:100BF80005932E4D03223978284600F0E7F938B1DD
:100C08004023401B03FA00F0049B0137034304937D
:100C18003978062226487E1C8DF8281000F0D6F96F
:100C2800002838D0234B13BB039B073323F007035B
:100C380008330393099B4B4409936DE705FB023284
:100C480001200F46A6E700230A2519460137059318
:100C5800384610F8012B303A092A03D9002BC8D09E
:100C68000591C6E705FB012101230746F0E703AB21
:100C780000932246104B04A94046AFF30080B0F120
:100C8800FF3F8146D6D1A3895B063FF536AF099869
:100C98001DB0BDE8F08F03AB00932246064B04A9B4
:100CA800404600F081F8EAE779BA00087FBA000800
:100CB80083BA000800000000250A00082DE9F04763
:100CC80091461F468A680B6906469342B8BF134689
:100CD800C9F8003091F843200C46DDF8208012B1A5
:100CE8000133C9F800302368990642BFD9F80030AB
:100CF8000233C9F80030256815F0060507D104F15C
:100D0800190AE368D9F800209B1AAB4229DC94F849
:100D180043302268003318BF012392062ED404F111
:100D2800430239463046C047013021D02368E56880
:100D380003F00603042B18BF0025D9F800204FF054
:100D4800000908BFAD1AA368226908BF25EAE5753E
:100D58009342C4BF9B1AED181A344D451AD100208E
:100D680008E00123524639463046C047013003D1D6
:100D78004FF0FF30BDE8F0870135C2E73020E118B9
:100D880081F843005A1C94F845102244023382F833
:100D98004310C4E70123224639463046C047013094
:100DA800E6D009F10109D8E72DE9F04301F1430C38
:100DB8000C46097E85B06E291746064698460C9A59
:100DC80000F0B38022D8632936D00AD8002900F071
:100DD800B980582900F0838004F1420584F8421054
:100DE80032E0642901D06929F6D120681368050624
:100DF80003F104012AD51B681160002B03DA2D22A8
:100E08005B4284F843206F480A2239E0732900F0D6
:100E18009D8008D86F2920D07029DDD1236843F040
:100E28002003236003E0752917D07829D4D17823CB
:100E3800654884F8453055E0136804F14205191DEA
:100E48001B68116084F8423001238CE01B6810F0A5
:100E5800400F116018BF1BB2CFE713682568181D33
:100E68001060280601D51B6802E06806FBD51B88C0
:100E78006F2914BF0A2208225248002184F843101F
:100E88006568002DA560C0F29580216821F00401F5
:100E98002160002B3DD1002D40F08E806546082A48
:100EA8000BD12368DB0708D5236962689A42DEBF45
:100EB800302305F8013C05F1FF35ACEB0503236150
:100EC800CDF800803B4603AA21463046FFF7F6FEE0
:100ED80001304DD14FF0FF3005B0BDE8F0833948FF
:100EE80084F84510136821681D1D1B6815600A06E3
:100EF8000BD5CA0744BF41F0200121601BB9226805
:100F080022F0200222601022B7E74D0648BF9BB2AC
:100F1800EFE76546B3FBF2F102FB1133C35C05F85A
:100F2800013D0B460029F5D1B9E713682568181D5E
:100F38006169106028061B6801D5196002E06A061D
:100F4800FBD51980002365462361B9E71368191D8D
:100F580011601D6862680021284600F037F808B162
:100F6800401B606063682361002384F84330A7E76F
:100F780023692A4639463046C0470130AAD023683B
:100F88009B0713D4E068039B9842B8BF1846A3E7B1
:100F980001234A4639463046C04701309AD00135C8
:100FA800E368039A9B1AAB42F2DCEBE7002504F1F5
:100FB8001909F5E7002BACD1037804F1420584F850
:100FC80042306CE78ABA00089BBA000810B5C9B26B
:100FD80002449042034601D1002303E01C7801300B
:100FE8008C42F6D1184610BD10B5431E0A449142F2
:100FF80000D110BD11F8014B03F8014FF7E7884203
:1010080010B501EB020307D8421E99420AD011F825
:10101800014B02F8014FF8E78342F5D98118D21A3B
:10102800D34200D110BD13F8014D01F8014DF7E787
:1010380038B50546002943D051F8043C0C1F002B55
:10104800B8BFE41800F0D0F81E4A1368104633B948
:10105800636014602846BDE8384000F0C6B8A34273
:101068000BD921686218934201BF1A685B6852184D
:10107800226063600460EDE713465A680AB1A24231
:10108800FAD919685818A0420BD120680144581899
:1010980082421960DED110685268014419605A60B2
:1010A800D8E702D90C232B60D4E7206821188A429C
:1010B80001BF116852680918216062605C60C9E765
:1010C80038BD00BF1C01002070B5CD1C25F00305FC
:1010D80008350C2D38BF0C25002D064601DBA9422A
:1010E80003D90C233360002070BD00F07DF8214A3D
:1010F8001468214691B9204C23681BB9304600F08A
:1011080063F820602946304600F05EF8431C24D17D
:101118000C233046336000F068F8E4E70B685B1B8B
:1011280018D40B2B0FD90B60CC18CD50304600F0DB
:101138005CF804F10B00231D20F00700C31AD3D07C
:101148005A42E250D0E74B688C4216BF6360136086
:101158000C46EBE70C464968CCE7C41C24F00304B2
:10116800A04205D0211A304600F02EF80130CFD029
:101178002560DBE71C01002020010020F8B50746A8
:1011880014460E4621B9BDE8F8401146FFF79CBF4A
:1011980022B9FFF74DFF25462846F8BD00F026F88E
:1011A800A0420FD221463846FFF78EFF0546002899
:1011B800F2D031462246FFF717FF31463846FFF78F
:1011C80037FFE9E73546E7E738B50023054C05461C
:1011D80008462360FFF7CEF8431C02D1236803B109
:1011E8002B6038BD240100207047704751F8043C3B
:1011F800181F002BBCBF0B58C0187047537461638D
:101208006B206672616D653A0A000000205230203A
:101218003D2020253038580A000000002052312097
:101228003D2020253038580A000000002052322086
:101238003D2020253038580A000000002052332075
:101248003D2020253038580A000000002052313255
:10125800203D20253038580A00000000204C52203C
:101268003D2020253038580A000000002050432037
:101278003D2020253038580A0000000020505352E5
:10128800203D20253038580A000000004653522FD0
:101298004641523A0A0000002043465352203D205E
:1012A80020253038580A00002048465352203D2057
:1012B80020253038580A00002044465352203D204B
:1012C80020253038580A00002041465352203D203E
:1012D80020253038580A0000204D4D464152203D07
:1012E80020253038580A00002042464152203D202F
:1012F80020253038580A00004D6973630A00000041
:10130800204C522F4558435F52455455524E3D206C
:10131800253038580A0000005B48617264466175E0
:101328006C745D0A000000005B4275734661756C61
:10133800745D0A005B55736167654661756C745D21
:101348000A0000007A7B81808480847E7F7F827C93
:101358007B7D7B777578757A8085898C8D90908C6C
:10136800847E786F6D6E6D7279808587898D8C8F9C
:1013780091908E8A87817B746C696668696E787FC4
:1013880080848F8C8E888A898385878680858887E4
:1013980083837F7D7A76787A7472767871707379C0
:1013A8007E81878E92929594938B847E786D6D71F1
:1013B8006F7176807D80818588888B8C8D89878305
:1013C8007F7A7370727272757D8284878A8B807C53
:1013D80081807D80868485848887858083827F81DB
:1013E8007F80827F7878736E6D75797E7A82878840
:1013F800888B8A858280827C7D7E868486858485AA
:1014080085848387807F8181797875716E6C6B6E36
:1014180073777C848D8E8E8D918D8D8C8A8987864D
:1014280082827D797676747475777B7F807D7E7E07
:101438007B757B7D7C7B7C828485878884818185A4
:1014480084808487878483868686868887817E7D54
:101458007A746F6C6B68666C70707682898D9297FF
:1014680098969497958C8A89857D7774726D6B6E42
:101478006F6C6F73797E8280848B8986898D89876A
:10148800878C89858685807E7D7A78757874706D7D
:101498007175757C81888A8D9292918F8C868583EF
:1014A800797578766E7176737373787C7F818588A9
:1014B800878A878687878486858482818183827DDF
:1014C800827F7C7E807774746E7075797A80838869
:1014D8008A898B91898685817D7C7C777F828281D0
:1014E800828381797C837C74777C7773757B7B7B43
:1014F8007B8081838C908E909088838782787777A1
:10150800797975777D8481868986848384828176DA
:101518007978757377747679767E8383808A888BF9
:101528008B89838783818680828689858A80807E6D
:10153800776F6E6D6A6F6E7883817C8D908E908FD9
:101548008A90918587827978796C686D6E727A7FD6
:1015580088908A8A8F8D868479767B78727276777E
:101568007A767A8080828B8C8A918F86848C84802C
:101578007E7E7F847F77837F6F70756E6E71787FD4
:101588008381848586888D898A8B8587847D7F7B06
:1015980069717672727F848D928F91908983887C2D
:1015A8007A7375726A6E7567667883848490989E7C
:1015B800949592887D858176767C7D75767D78692F
:1015C80071777E747A82878183867F7A808A86891A
:1015D8008F978C8986836D687078716F7E86848515
:1015E800918885838B807E80847D77787469676E27
:1015F800737F7F8B949390998881838277787E829A
:10160800828284817B777A7A7E7E83847F7D8070F4
:101618006871756D74838A8894998E8B89838282A8
:101628007F868682878B76707B7D73757B7C797CE1
:101638007C777573767C7C7C8A908B979D88808874
:10164800877A7A7F7A737676727274797F828591D7
:10165800918A94917E7A7F7A72767C79727A76739F
:10166800787A7F868789928F848C8A79777C7A7852
:101678007A8386828680797876797D7D7F87817A7C
:10168800847F7577808280848D8E8C91897F7D7A26
:101698007C7D7C7D837F7B827B6F6D7777767B8299
:1016A80083868C8581817F82858488908B878D83D2
:1016B800746F75716F747C7D828782838381838464
:1016C80084868C88868A80726D706C6C727C7D8250
:1016D8008785868986868785878B88898C847977AC
:1016E8007B7674787D7B7F7F7B7C7E7A797C7B7C44
:1016F800807F838783808386848483838287847CB6
:10170800807F7A7D7F7B7C7E797D817B78808581F7
:101718008181808085827E81827F8083807D7B75C8
:10172800787B76747B8080838889888C89868A8890
:101738008384847F7A77716F6E6C6E757B7F868BFE
:101748008C8D918C898C8A848284807C7975727066
:101758006C6C70777C80878A8C8C8884838380818A
:1017680083828181807E7C7A78787A7F8184878879
:1017780087837E7C78787A7C7D7E7F7D7E7F7E7D88
:101788007D8083888A898B8A84807D79767676764F
:101798007678797D8082848789898B8C8C8B898601
:1017A800837D7773716E6E707172767A7E83878BA4
:1017B8008B8D8D8C8D8B8A8A8783807C77747374EC
:1017C800737375787C7E7F807F7F818485878B8D1E
:1017D8008D8C8A86827F7E7C7B797978777877761C
:1017E8007575787A7E8285898D8F8D8A87848281C6
:1017F800807E7C7A7A797977777877797C7E81862A
:101808008B8D8D8D8B888583807E7C7A79787877AF
:1018180075747474777B80858A8C8E8E8C898784A6
:1018280081807E7D7C7B7B7A777575777A7E8184F3
:1018380087888885827F7E7C7D7E7E7E7F81818190
:1018480081808080818283848584837F7B7876769B
:101858007778797A7C7E808283838384868687867C
:10186800878582807D797776767877787B7F8385A0
:10187800868584848281848685848381807B797748
:1018880078787878797C7E7F7F808182828283866F
:101898008789898A8A85807F7E7A7877777777754E
:1018A800757576787A7D808386898C8E8D8E8C8B03
:1018B8008886827E7B7976767470706F727375799C
:1018C8007E83898E91919292918F8A847D77726FAF
:1018D8006C6B6C6D6F73777C81888F9598979793F5
:1018E8008E88837E7873707070706E6F7174777B7A
:1018F80080868D939493918E8B87827E7B7979787D
:1019080078777777787878797D808283817F7E7C15
:1019180079797D8083858688898A8C8A868584837F
:1019280082807F7E7D7C777271757777787B7E8108
:1019380084848486858382828383828283807C7B7D
:101948007C7E7D7B7D80818384858788847E7D8085
:10195800807F7F7F7F817E7A7877787778797A7CC5
:101968007F81838688888685878788878687878614
:10197800807C7C807F7A7674787B787272767C7CC7
:1019880075747C858888888D9698928C87858683DF
:101998007971717475726C6B71777A7E828993979D
:1019A80097948F8D8B8379736F6A6A6A6A6D707585
:1019B800797E82898F959B9B9793918D878076708E
:1019C8006F7071727173797E7F7F81848C8C868150
:1019D8008082827A6F727B8285827F848C8D8984F3
:1019E8008386867F7977797C776B66717C83868539
:1019F800879298938E898585837B757074767062DB
:101A0800656E737D818087999E9A959193948B7E5C
:101A180074707171635A67717C807D7E8B95918E2D
:101A28008A888E9189827A75736A5A65727B8A8EE2
:101A3800898E9D99968F8381837E756C6568695BB5
:101A48005E6E76828D8E91A2A5A5A29690918578DC
:101A58006E615A5D555467727C858786979F9FA4EF
:101A6800A49E9E998B7F70645D524654606A777D10
:101A78007883969DA3A3A0A1A295908577727061A3
:101A8800606D717978707080858C938D8C8F88806B
:101A98007C756E6C666879838B928C889095949827
:101AA800938B887C736F6A6666615F6F7E8791919E
:101AB8008D9093949A988E877F70665F5A5A5A5B76
:101AC800687C8A969A94929696999E9B9794877C1E
:101AD800756B655E56586B78808888838789868B96
:101AE800918E8B857B7A7875726E6B758387898802
:101AF80083848A8B8D9395908A7C716E6B6A6966F4
:101B08006A7A86888A8784878B8A8E9596948B7B57
:101B1800726F6B69615B657681878A888A90949217
:101B2800949899978C7D7675716C615A63727A7CFA
:101B38007B7A7E8286868D969C9E958C878480771C
:101B480068656F7A80807B777A7B7A797F888F8FD8
:101B58008884878C897D6F6F7983847F7775797C9A
:101B68007C7B848D8F897D74777A7B767078889476
:101B78009590888487868280878E9087766A6A6A3D
:101B8800635A55637B8C919190929796908F949716
:101B98009688766F6F6C665B556377868B8C8B8DBA
:101BA80091918B8D93969388776F716D675D58656A
:101BB8007A888B8987888D8D888A9097988D7E7989
:101BC8007B7B74655F6B7C8887817D7E84837F8265
:101BD80089908F8274727575726968798A93918B0E
:101BE800848388898B939A9B9788786E69645D5300
:101BF80055667C8B8C8984858A8B8B919AA09D8F66
:101C08007F777570665858677985848283898E8D49
:101C18008C939B9E998B7E7A777167595B6B7C82DC
:101C2800807E7C7F8482828A929693877E7F7F7C67
:101C380074686978868D8B868486888682868B8C84
:101C480085766A676A6D6962697B9099968F8C8CD4
:101C58008E8D8A8D90908778696362615D59677E01
:101C680094A3A39C9A9897928D8B8A898072645EBC
:101C78005C5853515D73879496969897989590926F
:101C88009491897C71706D6A6460687B8C928E8B8C
:101C98008B8A8B8885878B8C85776E70727067616D
:101CA8006A7B898F898585898A87868A8D8C857ADA
:101CB80074757877706F7A8892928B858181858325
:101CC800858B8B867D726B6964605C607286939489
:101CD80091908F8E8F8D91979893877B76746E6293
:101CE800575B6C7D88888484868988878D92948FD9
:101CF800827979787169616777858C8A848284882A
:101D080087868D8F8D88817B7977736D6B75818BD5
:101D18008D8883828083828386847D736B696B6BF5
:101D28006B6B7486969F9E99969391908B8E8F8AF3
:101D380082705E5A5A585656657B8E9A9C99979926
:101D48009C978F91908B817165615E5D5A5B687A13
:101D58008A93959696989D999797918A7C6E6B69C8
:101D680065645F64707C858687888A8C8D8C939285
:101D78008B83756D7072726F6E7A8891918D8B8C72
:101D88008A8D89878B8983756765696869666C7CC4
:101D98008A93928D8B888788858A8E8C877A7173CF
:101DA800716D6B6974828F959491918B8984818709
:101DB80085827A706E72706E6767727C84848385A0
:101DC80089888B878A90918D837A7D7F7D7C7479D1
:101DD800838B8D877F7E7A7C7B777F82817B706A1D
:101DE80071727474737F8B9496908B8B888A8585B7
:101DF8008A88847B716D6D6A6D676E7F8D97989404
:101E080094908D8C858787847E726868625D595648
:101E18006374848F91939899A09D9B9F99918779DA
:101E280073726B675C5C67717A7E7D82868B939137
:101E38009799938D827877716C66616B77808482CD
:101E48007F8181888C909A98918A7E7A78716E6762
:101E58006B79848B8B858483818481888B85817859
:101E68007173706B645F6C7C899192919492948F7A
:101E78008D94908B84767575706B5F5F6E7A8386B0
:101E880084888B8F90898D8B8480736D7475756E43
:101E980068727F888D88868889908D8E95918C80D0
:101EA8007070727070666B7B88908F88868384836D
:101EB8007C83848280736D7271726C697685939B62
:101EC80096929190948D8D908A85796B6B6A6763F1
:101ED800585D6A78868B8B9092999A969C97908891
:101EE800787174706F635F67707B807E81858A9676
:101EF800959CA09B938575736E6B665F67727D83F7
:101F0800817C7F7E888B8E9998958E817D7B75717B
:101F18006669737D898C86858182847F888A8685B7
:101F28007B72736E7067626F7D8B939292928E94C0
:101F38008D8D908B877E6F706E6C685D65727E8903
:101F48008B878B898E8E8C97958F877871726D6D44
:101F580062606E798388868685868E8D969E9B982C
:101F6800897B78706C655A626E7D8A8B87878388D7
:101F780084858F8F8E897A74706B695C5D6B7D8DBB
:101F88009594969495989197958E85766B6D6868DB
:101F98005E55606D7E8A90929692958F9198928AFE
:101FA8007F73706E6A675B626E7A848988898689B6
:101FB80091939FA19A93867E7D7470665C62687126
:101FC8007A79777777838993A1A19E9688827B71A6
:101FD8006958596674838B8E939191948D93948AE2
:101FE8007F6F666B6766615D6D7E8F979797979138
:101FF800928A868C8580766A6E7372746A6D79822D
:102008008988838482828A89949B9792867D7C754D
:102018006E61555A636E777C82898B979C9FACACB6
:10202800A89880726B605A4B48596D7E84848A9355
:10203800989E95989C988F7C6F7275736B5B65768C
:10204800828C8E8E938D8A89818A8981786D6A7057
:102058006F726E6A767F888B87858687939499A43A
:10206800A09B8B7772706D6A5653616F7C7D777E0B
:10207800848D95929EA9A9A08A79766F6B5A4A5643
:10208800687A8585868A89929093A19F988B7A76BB
:10209800756D6C5B586573848D8C8D8885887E859D
:1020A8008B8A89827A7F7D7F7B686C7685908D8527
:1020B800868085857D86868480736E75757A6C606A
:1020C8006A7888928F8E92909A93949E9A94877247
:1020D8006E6A63614F4F5E6F7E87858B8E929A948E
:1020E8009FA59D948172716C6960525D6E808D8E22
:1020F8008C918E908A8794969187756F726E6E5EBA
:102108005A6A79878B8587878389828D9B99958879
:102118007B7D7F7C776367737C89867F827B7C7F0E
:10212800788A94928F7D717772736757677A8B96E6
:102138008D88908C958E8CA2A59F8E716B726A6526
:102148004A435E75888B8289918C8D7E879E9D948B
:10215800826F7B80796F57627D8B928D858F8B859F
:102168007E7587938B7D6C687B7C796B5D728793BA
:1021780094898289817F76748A938E81707284852E
:1021880083726B8192968D7B777D7877717C989C32
:10219800907B68727D7466525B7C95999288929761
:1021A8008D857B93ADA8947A6A7674624F4053729A
:1021B8008384818495958A8486A3B09F8673758766
:1021C8007D68565068838987888E9A8F7E747C9440
:1021D8009884706672847B6F64687E8F8D85818732
:1021E8008D817B7C8DA39D85736D7A857B6E656FF4
:1021F80088938B837D8484746D708AA19782706DB7
:102208007B7D6D5C576987928E898D9A978D868ABA
:10221800A7AF9B836E70796F594345617B837F803D
:102228008D9C988C818AA3A18D756A758178645676
:102238006280928E8789959A8E7F7A8B998B766544
:102248006372786E5F5E748E958E898C948D8278B9
:102258007F9498887569717E7D71666B8195918888
:10226800808388877C778697988978717978705980
:1022780053617B8C8A888A939390878E9FA69D8BC7
:102288007A7A7D735F4B4C6073717075848F928E10
:102298008D9CA7A090817C848277665F67787D7B20
:1022A8007B838F8E8A8186959487786F757C796D0C
:1022B800646C7F8D89827E868A8A827B85909085F0
:1022C80076727A807D75717B8A908B858283807B1C
:1022D80074747D81817C79797B78746E6F797F8164
:1022E80082868C918C88868D9496928B8887857B44
:1022F8007066666B6D6D6E717A848887868B919136
:102308008C86828282807B76787B808181828586BA
:1023180087858282817E7B7773737275777C8183F0
:10232800878A8A88827F8080807F7D7E7F7F7E7C8F
:102338007D8185888885848586827B7673757879A2
:1023480078797E82827E7D7D7D7F7D7E828589888B
:1023580085848486898885828183807B7876767572
:10236800727172777C7E8082848889878481807F7D
:102378007D7D7D7E80807D7D7E808080808184885B
:10238800888583817F7D797778787A7A7B7E818268
:10239800807E7E7F828586878685827F7D7C7B7B2B
:1023A80079797B7F82838382828384848483838117
:1023B8007F7A777675747271757B80848587888952
:1023C8008A8A878685848381807E7D7A777475770B
:1023D800787A797C808488888685848281818283E2
:1023E80082817E7D7F7E7D7B79787A7D8082848400
:1023F8008281807F808081818182848483807E7DC8
:102408007B7C7D7E7F7F7F807F7F7F7D7D7E7F81E0
:102418008586878583807E7E7C7C7B7B7B7E7F80B8
:102428007F7C7A797A7E8285878685848484838195
:102438007E7D7E7F7F7F7E7C7A7977797B7D7F81C9
:10244800838688888683807E7D7D7D7C7D7D7E8079
:1024580080828382828080818181817F7E7D7C7B76
:102468007A7A7A7A7C7F838788878581807F7E7E67
:102478007E7C7E7D7E7F7F807F7E7E7F8286868853
:10248800868483817E7D7B7B7D7C7E7D7B7B79776B
:10249800787A7D8081838486878788868483817F14
:1024A8008181817F7B7A7A79797877797C7F828458
:1024B80086858583807F7F7F81807F8082848482F8
:1024C800807E7D7C7C7C7E7F7F7E7E7E7E7F7E7D27
:1024D8007F81848686858482817F7D7B7978787800
:1024E8007B7D7F817F7F80828588898886858482BD
:1024F800807C79777575777A7C7E7C7A7B7D7F8125
:10250800838586878988878683807D7C7B7D7D7DA2
:102518007D7D7D7D7C7B7A7A7D80848686868682B9
:102528007F7F7F7D7C7A797B7D7F838482808382B5
:102538007F8081807F807F7D7D7E7C79767A7F82B7
:1025480084888786868886817E7E7A7778797D7E7C
:102558007E7C7C7D80828584858789898683807E50
:102568007C79777A7A7B797675777B7C7E7D8085B6
:10257800898A8B8B888583817E7F7F7F7C7A797936
:102588007C7C7A7A7C7D81838384858482817F8048
:102598007E7D7A79798085838285848386817F7D33
:1025A8007D7C7A7A7A7B7C797677797F8486878A4C
:1025B8008B8B8983807D7A767577787A7C7C7C7E34
:1025C800818689878B8B8C8D8B84807B76706D6DF3
:1025D8006F717377767B8286848587878A8C8A88F1
:1025E8008886837F7E7E7D7B7D7E7D828484817EDE
:1025F8007A7A767576777B7C7D7C8084858181810B
:1026080081848788888786827D7B797A7D7E8085AC
:10261800858886827E7B7B7A7B7B7D7A7E7D7B7BD1
:102628007C7D7D7E7D7F82847E7D7D7C7F838483AF
:10263800848689888989888886837E797A7873737D
:102648007370757A79797B7E7B7D8284878D8E889D
:10265800858585817E7F7E81878886827F7C787567
:1026680077777B8082828382807F7978787E7F8487
:10267800858284858279797C7D7A81837E818A8549
:102688007E82858381888B8B898A887F7F827C750F
:1026980078716B72757070767B7D808788878B9177
:1026A80090888C8E8780847B727879706B797F7D37
:1026B8007F8A8886898E88848C8C827C85766B72EA
:1026C800786561787E747F8F84828C8A7C86888521
:1026D8008286847D7B84836E758A857790948489CD
:1026E800967F7885786E73736B706F7C77717B8E4D
:1026F800807D9690859196818E8E7F7B80736F6F9B
:10270800757D6B6F888E758E9A828594837D8F8197
:102718007B7C7A707066757265778A7D7C9E8C8307
:1027280092907E8C8B8387858380747987696F8A82
:10273800857591937C84877973746E746C6D7A71E6
:102748006D8B7D708F928094A58F8F968E88807AFE
:1027580080756472725E7881687E9483879A8F87A9
:102768008C8483807580806B6D7E61657F696C8CDD
:1027780086829A9B93918D8E917D838F7F75867AC1
:102788006580725E788272848F8587837B817A6E9A
:102798008180747D89767E8B767D8C838496928DFC
:1027A8008A85858373757E736F79766D807B748374
:1027B8008982898E8A868081827E79807E76727807
:1027C8006E717D767D8D8F8D9799958A8685847CAF
:1027D8007D838074727565686C69727E81878F925B
:1027E8008F8885837F7B828685808583777A7675D7
:1027F8007D8281888E8D8782827F79787E7E7A77C6
:102808007E7C797C787A7F8282878B8C8582837FB5
:102818007B7C7F7D75747A75757B7D83878A8B8DCC
:10282800918F888886838382837E72706E656568DF
:102838006B767E84888D928F8A8B8A888A8A89842F
:102848007E7E786F70717074777F84898E8C8989A9
:102858008683868584817E807C73727372727075BC
:102868007D82848787888583848484838487848021
:1028780081807E7D7A7A80808083838485807D7B59
:1028880076767776747375797C7F7D7F8687878780
:10289800898C8D8B8C898686817A76757576777A20
:1028A8007A7C808381808586858685848788847DF7
:1028B80078757170717275787C838384898A8A8B44
:1028C800898B9092908A86827A7374706F706E7218
:1028D80076777A7D7D7E7E80858A8C8C8D8D8886C4
:1028E800837E7F7D77777A7B7D81827F7D7E818203
:1028F80082848483848582817F7A7473767A7A7EEF
:1029080084838285858281817F7B7E7E7E82827FB1
:102918007D797B7F7E828687898B8A8787867E7989
:102928007873737675777876797B7B7E82848889ED
:102938008A8C8E8C8984807D7C7974757475777A9D
:102948007C7D7F83858587898C8D8C8A85827F783D
:102958007573717373767B7D7F82818182838485B1
:1029680087878688857E7D7A797A7A7A7E83868952
:10297800898884817F7E7E7D7D7F7D7B7A7878786B
:102988007775787F82848A8B8889878282817F7D28
:102998007A7876797A7B79787B8082858C8F8F902C
:1029A8008E8A88857F7B77716E6F7070707074788F
:1029B8007C8185888C8F919291908D87817B7675AB
:1029C8007675757475777A7D7D8083838487888B27
:1029D8008C88847F7B7A797676787A7C7F8181820D
:1029E8008281818283868889878482807C797778CE
:1029F800797A7C7E7F828383827F7E7E7F807F80E0
:102A080083827F7E7A797B7B7C7D818689888988B1
:102A18008584837F7E7F7F7E7C79777776757474F3
:102A2800777C82868A8C8E8D8A89868585837E7A54
:102A38007A7C797774727274787B7E8186898A8AC7
:102A4800898B8C8A837F807F7E7D7977757271729E
:102A5800747D818487888B8E908A8685817D7A793A
:102A68007776767875737577797D80858A8F908F7C
:102A78008D8C8784827A7A7A7A797978767674777F
:102A88007B7E8085858586888A8684817D7A797A29
:102A9800787C7D7C7D7D7D7E818486888B8C8B8D0A
:102AA8008A86807D79757372737475777A7B7E8078
:102AB8008081868B8A8C8E8B8884827C78787573EB
:102AC8007879797C7C7C7C7F8182868788898A89F1
:102AD8008685817D7977737778787C7C7C7C7F7E2E
:102AE8007D8383878C8E8C8A8883807E7C7B7C7BAD
:102AF800777679767379787779797B7F84888A8D08
:102B08008C8C8D898988838181807F7D7A787675A0
:102B18007575727575787E828687878689888485BB
:102B280088888785827F7D7A7471716F727A7C80DC
:102B3800828588868A898A8A8887848381817D7745
:102B4800736F6E7071777B7E8384888788898885A8
:102B580086888A8685837E7A787674757378797D97
:102B68007E838380827E80828588878686807E7E3B
:102B78007D7A7F7D7D8281858586807F817E7E7E50
:102B880079797A78787B7B7A807D82828587878855
:102B98008688858584807C7B767977787B7E7F8044
:102BA800838283828680838381858681807C787610
:102BB8007474747A7B8180838284837E8382868B1B
:102BC8008A8A8582837D7D797777767A797D7D7E1D
:102BD8007C7C7A7F8483878683868682837F7C79E0
:102BE8007D7B7E7E7E7E80807D838281807D7D80F0
:102BF80081837F808183817F817F80817E7D8080CA
:102C08007E7F797777757B7F7E838788898A8986B7
:102C18008381817E8083827F7F7F7B7C7C777879CC
:102C28007C818280807F7E7E7E7C81838183878594
:102C38008586827F7C7B7A7A797F7D808183838495
:102C4800878685808280827F7B7574747374797DB2
:102C58007D8384888A8B8B888281807D7D7F7A7A48
:102C68007C7D81808481858287858584827C777656
:102C780070737273727B7C8284868A888786868367
:102C88008387868383858482857D7E7B7B7B7C7B33
:102C9800777774747277767D8082878A8A8C8F863C
:102CA800858483817F827B7B7B7D7E7F7D7F837F25
:102CB80083858686847E7C7A7977777877787C7C3A
:102CC8007F81828283868584858C868A878B8B88A0
:102CD8008686837979757674716F6F717273787B74
:102CE8007E84898A90928F8E8A8884817F7C797A83
:102CF8007A7E7B797F7F7D7D8080868381827B7AE7
:102D08007877757578797A7D7E81848787858787D6
:102D1800898785878B8E8885847C7A7570716F72B8
:102D28007475747A7A7E848586898D8F8E898C8471
:102D3800817C7673767A787D7D8686878B8A848295
:102D4800857F807C7875756F6D6B6D75777C8289F2
:102D58008B938F918F8F8B8D89878481847F7F76EA
:102D68007B7675736F7276767377797D7F85888BBE
:102D7800858A8682827D7D7C797A7B7C818182824C
:102D8800898A8A8C908F85887D75736E6867686D6F
:102D980073738081838790959090928F84827B71E2
:102DA80072736F71747C85888E8E8F8A8E8C818009
:102DB8007C7C7A76706C6E70696A717884898F927F
:102DC80097969A968E8E88888783787776726061D0
:102DD80063646E72787E838C978A90928C8C9086CE
:102DE8007F807C7665686B6C6F7B7E868E9EA196F5
:102DF8009B958F8C8C7D77736E5D585B5F646C7D63
:102E08007E868E9D959395918E908880817B736642
:102E18006C6E7474838C8A8B9A948889807F827D87
:102E2800737D7A7466656A6F6C778B8A8A94A091D1
:102E38008D8680868A81868D8A7E71717672667C9F
:102E4800847C7A8B867D7E747B88827F8D8F8A7C5A
:102E580074777F6F7087847A828E84857E79888F75
:102E68008389918D7E6E6D76726477847E7B8B8686
:102E78008182787D8E887E8C8E8A796C717D717660
:102E88008E91899197898A7C727A8071727A7A7127
:102E98006465737A72859494939E958D8D7A7A85FC
:102EA8007E757D8183776D707B7577888A888A8E39
:102EB80080827B6F77807B7D85888479747A7F7642
:102EC800808685848A837C80787A858A878B8E90B1
:102ED8008677727570707A79787D827A7D7D787C54
:102EE8008688888D8D8A7E747579757D84858891AC
:102EF8008D83857F7E7F837F8082827C6F676B6D09
:102F0800717F808589908B89868180818381848582
:102F1800877F767378767F8585898C8B81807777B4
:102F280075787A7B7F85877E7775797A84858687B9
:102F380089857E7C797A7A8283868A8E887F77777C
:102F48007B7E84838685857D76737376787E7E81A5
:102F5800878A827870747A8088898F92938C878127
:102F68007F7F7F7F7B7C7F7D71655E666F79838ADB
:102F7800929597908B838281827F7C7E8381766B0A
:102F8800676F7680868A8E90908B8580807F807A26
:102F9800777A8180766D6C747B848888878987824C
:102FA8007C797E84898685878C887D716D7277822D
:102FB80084838283817D78777C82888583828580FB
:102FC800786F6D7179878D8E8F91908B84818082D7
:102FD80084827C7A7A746C636265717F878C8E9147
:102FE800918D8987848586848080807A736D6D70E1
:102FF8007981888A8B8C8B8682817E7F807E7C809B
:10300800807E767172747B808283828585818080E0
:1030180081848685878986817775777A7F8384829C
:103028008282817D7A7876797C7E82827F7A7374D7
:1030380079828A8F8E8C8D8E8E89857E7B79797A3E
:103048007C77706762666F7C858C8D8E8F9091918E
:103058008C847F7D7E818480786E6A6C747E86889D
:103068008481808386898785807D7D8082807A734C
:1030780073747C848987827C7A7C7F84858581814E
:10308800828486847E7B7B7B828789878079777838
:103098007A7D7D7B797A7A7B7F7E7B7E7F8188894A
:1030A8008A8B85818284868784817D7C7C7D7D79FD
:1030B800757676777A7B7F807D7E8284898C898716
:1030C80085848585817C787674757778797B7D7E33
:1030D80083898F91908C88858584807C76726F6FC8
:1030E8007072737677777C81898C8F8D8A898C8BC7
:1030F8008B89827E78797D7E7D7F7C7675767A7DF8
:10310800807E7B7C7F7E8286827F7D7F82838284B5
:10311800837F7E7F83858785838281838686807A85
:1031280076757778797D7E79777A7E8287898786C2
:10313800848586868076727173757A7D807F7F85B7
:103148008A909396918B848485847D74706B6A6A67
:103158006D6F727273797E848C93908C8A8D8F9048
:103168008C85827D7C7F807D7E7A757575797F847C
:10317800827D7C7F8282827E7B78787C7E7F808065
:103188007B7B7C80868A88848285888888837F7B0D
:103198007C7E7E7F81807B79797D838685817E7D3B
:1031A8007D7B7B78726E6F73757A7E82838589905A
:1031B800969A9B95908F8E8C8A81756E6A676669E0
:1031C8006B6C6B6B6F79838D918E8D8C8D8E918BE3
:1031D800837F7F7E7E7E7B797572747A81888A8808
:1031E8008786868889847E7C7C7A7A7876767370FE
:1031F80072767C8386868685878B898583808182A3
:1032080083838384807A7C82888E8C867D787879A3
:103218007774706A6A6D72767B7D7D7F8790979EE2
:103228009C968E8B8B8B877E736D6D6D6E707172B5
:1032380073777E83888C8C878385888A8A86807D4D
:103248007C78767574716F727B81888F8C88888A98
:103258008B8F8F8C85807E7A7B7E7D766D696E7391
:103268007A7E7B7A7D80838886817E7C7F81838756
:1032780086838182868A8D8D888482807F7E78731A
:1032880071717474737374797E8386888E9496963C
:10329800908884817F78736F6D6B6B6F7074787CA6
:1032A800848A8F95989995918D8C8D8A857A6E648C
:1032B800626469696B6E787F8288888C8E8F8E8D48
:1032C8008D8D8B877E767274797C7C7B7D7D808208
:1032D80087888A8A878581807F7D76706C727D89F0
:1032E8008D89837C7B818787817A76797F838579CD
:1032F8007168677486979C968B8786929993857771
:103308006F767E85785F524C5D768F969182828447
:103318008E9991867D7E8A9BA19A7863555D6F828E
:103328008B887D797D818C867A7074809595937A67
:1033380068676C7F8890908E8580747677746D72DC
:10334800798C9491856A6A6A7D8A979DA19B9281FE
:10335800777978736F6F74827D7D615859677D8D39
:10336800989C9C938C81878C8C868988928D85709B
:10337800575559707E87898B837E7377858A8A89AA
:103388008A92958B866D676774848987837F787145
:103398006B7A858B8787888C88847970777E929AF8
:1033A800968A7F726C646D7F84867D7C7D7D767164
:1033B800666B78889A98928C87817C7A8E969789A2
:1033C8007C7A75756C6965717C8B8E837A74706F85
:1033D80071809EA6A69289817C756E6E6C797F8DB0
:1033E8008A7F736B676B748F9E9B9381857E837CCA
:1033F8007D80868E8E928375665E5B6273959A99E0
:103408008575736F766F77798F99A2A08E8278749D
:103418007374879B9690716C656E736D6F6F838CF8
:103428009990827572737A85A2A9A4907471656E59
:1034380065686875848A8F847D7674747B8AA9A987
:10344800A88D83817D7E6D6D697B80847E726A66BE
:1034580062666C86A1A29F827F7A858781807E8F33
:10346800939A9082746962656A8894968A72716880
:10347800767175747D8E959D93897D736F6E7A983C
:1034880099967B716F6E766B706E8490979689842F
:10349800807C7A7990A8A597736C626D6C65686971
:1034A80082878D8278716F6F717B9DB0B1A08680A5
:1034B8007480777B78808D89897B746A6765697980
:1034C800979B967C736F707C768281969B9A90808E
:1034D800746C6A676C88A19F92716D657376757854
:1034E8007E959B9E90867F7D7A7679959C967B6566
:1034F800615E6C676D6C7F8D908C7F7A77777A7F51
:1035080099B6B1A7857B7274716666698187887E72
:1035180073706D6B6D7399AAAA977E7F79857C7A93
:10352800727D8F918C786760606364749AA1A68CB1
:103538007E797A827D7E7A8F9DA39985746F696979
:10354800657C908F87696967757875727A95A0A090
:1035580091827C7B77757A9EA4A185686763706881
:10356800656278919995847C82807F7887A6A39EEE
:1035780079727276796966647E8B8C83726E716EED
:1035880073759FB3AE9A737A76827A72727B9696C7
:10359800928274746B62606B989D9A7B6973728077
:1035A8007072728DA5A39B867C7B7370718BABA1A7
:1035B800936662616C7061676D939E9F927F7B7A60
:1035C8007173789FB5AA8F66696474635F61739637
:1035D800959383787978727484B6BDB58D72747357
:1035E8007C6464607C8E877F6D696D63626787B574
:1035F800B4A97D767986877576779AA0998C766F47
:103608006857565B8CAAA690666C6F8278706F7D3F
:103618009F9FA09283827567666D9EA59B755B656B
:103628006B7B6A6C6D8CA39F9B877F7E716E6D8AA6
:10363800B6B0A37268676C69575B618A91928B7D9B
:10364800817D6E6F709DBAB29C73787380736B675F
:10365800749189887971746A626574ADB7B08A6E3D
:1036680073737E6E6F6B8C9C9793807C76645E5EC2
:103678007DABA2966D70767D796C6C759B999A90EE
:10368800888478686B73A2AE998264706A6B5B5E9B
:10369800607F9491948B8780726C758BB9B0A68586
:1036A8007B7C70695D61678989898279756F6468D7
:1036B8006F9ABAACA07E827E7C6E6D6E7E9489898C
:1036C8007C7670645A6171A8AB9D83717E7C7E752F
:1036D80082819D9C949182786A595A6080A69187CC
:1036E800696D6F72696F7983A19CA5A093877B6DC3
:1036F80072749EA28F79636E6B6A5C696985928E1B
:10370800938A807F7370758CBBAE9E807976705F6C
:1037180057626C8B8A8E8D827B7764696D9BB4A5AA
:10372800967F837B76676F71808B848A83736E60E4
:103738005D6375A9A89C887E7D77706C797E929769
:10374800989D8C7D7261616187A595877274726A94
:1037580063697482999BA3A08A7F726A6D7AA8AE06
:103768009D8C7E7A6758505D6B828F92998D7B73A2
:1037780066666D8CB5B0A4928B7F6C5F636E7B8B35
:103788008E91917D6C6055596893ACA2978F897B17
:103798006A646D7C8E9A9D9D907A6D6055566D9485
:1037A8009D8E837D7A71656A778597A1A4A4957E9D
:1037B80072655B627F9B95857D756A594E5A6C80F0
:1037C80096A2ACAA97877D6F6D7C9EAD98857B7419
:1037D800685751606B7E8E9092887A797773768F6E
:1037E800B2B49D928B817361606B717E888E8D807F
:1037F80078736C626683A6A2938F8D857A6D7277D3
:1038080077858B928F837370635A67869F978E8BA9
:10381800837467606D757F90999E97887C786662DF
:103828006F8EA08D8580766C625E6E737D8E9498A7
:10383800958984816F6F80A2AB98918676695B5A6F
:10384800686A76848B8F887C7D786C7183A7A99B46
:103858009B90867B6C7074717A838B897E6F6E63A4
:1038680059637FA29C95938981746F777B7F889831
:10387800A09588786F5D5864879B8C88827D716479
:103888006A787E8895A7A7A08D7F766260749796E0
:103898008B81786E594E5B6D798794A29E9A8C893C
:1038A8007E747C97AB9A8D837F6A534A5763727F85
:1038B8008C908A81777A6F6F86ABB2A89F978C6D50
:1038C800595B6670798289868179756B5A6286A49C
:1038D8009F938E96876E666A7786919D9E8F7D6C84
:1038E800685A546F97A39C8C857F64555F717F8D50
:1038F80099A3A0968179705B618AA5A28F7A796A6B
:103908005555607289949C9A8A7D787E736780A3E6
:10391800AFA89187846C6262646E75808E8E877B97
:103928007571595A819CA29B8F95866E6D6A7788AE
:10393800909B9D8F7B6C66594D7099A7A18A848155
:10394800695E636B8795A6ABA490786F6B5B5884B0
:1039580099A3927E796B575D61697C88A1ADB79F09
:103968008C7B6B5B769AA5A58B867C5C444445650D
:103978007D939E9D95857F796F6F9DB9BCA17D775D
:103988007169706D6E777B87857D71666D726977F9
:103998009CABAD968789796F675F6E818E9A948CA0
:1039A800765F534A4F7BABBAB18E80776968616C9A
:1039B8008BA7B5AF998770686359658CA7AA957767
:1039C800776E6D695A5D748A9B9C938577715C509C
:1039D8006591A8AA8D7F7C6E6658556B8B9C9F94C9
:1039E8008D7F7E7669729ABCBAA27F81827F756B61
:1039F800697D8A887F79726B684F4858879E9D8A4F
:103A0800848E8B87817E8CA7B0AC96836E6C5C5558
:103A18005F89B8B39A746B666465696E87999E937B
:103A280085797A7964616E9FA9926F5F68655E593E
:103A3800576C909EA08F7F7477605A6A9FD0C6A6F5
:103A48008280827A74717696A4A694817072675A7D
:103A58005D729E967F6666787A726F667A8C9595A7
:103A68008B7E7A77646A78ACBEAF948089897B75DF
:103A78006C7D9BA6A58F725C5A4B535B82A0907B92
:103A88005D637576797277919EA398877775686577
:103A98006A81A59B89706578747064607B94A7A817
:103AA8009D8C8372686C7FAAAE98826B797C7972E0
:103AB80061717E888B857973675F687BA3AC8E752F
:103AC80063728784836F7A8E9596918B8C847072DB
:103AD8007AA3BBA586717288847C655E747C7E7AC5
:103AE8007678796562698EB8B08E7366797E74640B
:103AF800556A787A7774727D70666E89B7C1A98BBA
:103B08008390A29A8F80869089786D6A716D5953D7
:103B18005B84998C6E5C687D897E767C9199948AA9
:103B28007F86887D74708BB0B39C7A6D798380733F
:103B3800758797908374707C776E687199AF9F7959
:103B4800565D76837A6F768995867B6C727F7974F9
:103B5800697897A28F6C596C878B7C72798D938C5E
:103B68008179888C867E7C94B0AE8D64576D7E7B1F
:103B78006D6C7D908B7E696671706F6E81A4BAAC36
:103B8800855E617A8B86797887959188757A797C54
:103B98007D7E90A6B19E7A5A616C736C626C7D8D45
:103BA8008F887B7C787A7A839BB0B7A47C616973B1
:103BB8007B7066636872736F6A6B6A6C6B788EA4CD
:103BC800AC9E857C8B999F938E8D919B958B7D70F8
:103BD80064595764798A8D7C645C68798786847EA9
:103BE80083929293877C76757A808B93968B7B7081
:103BF800768697988F82818C8C8B776C6765676BDC
:103C080075818C867B70737E8C8B7F7D818E938E85
:103C1800817A79746F6E727B8581766B6E7C8D8B01
:103C28007E797A8C9696928C8A867974798BA0A103
:103C38008F756B6F797466616576807F7B7678782F
:103C48007271758AA2A9A08D85898E87777076880A
:103C5800999B96897E73655F6980979D91796B6A58
:103C68006B6A5F636F85999C9B91847B716B74878A
:103C78009BA59E877368635E565B6A839697907F61
:103C8800726D686B7890ADBBB69C8174706F6A6812
:103C980072838E8D85766F6A63646C84A2B2AE91EE
:103CA800776B6B706D7281919B9987756863646C93
:103CB8007A94AFB9AD8C726A727A79767E8E999859
:103CC8008773645F585A6C8BA7B0A2846C636B7857
:103CD80080858B91948976625857565D6B849DA434
:103CE80099816C697380878E9AA8AFAF9F8977682E
:103CF800656E7E9398907A5B4E50617277777A8280
:103D080091958D81746E717A8EA4ADA88F746A6E48
:103D18007B84868A9197998B7A6C6569717C8D937F
:103D28009388736867717A7B787A8695978A7464C2
:103D38006469758A9BA19A7F685E656F75797F88CB
:103D48008E918C827874747A87949C9F96867A7602
:103D58007877757580888B827161575D67798D9AE0
:103D68009F988C817E7F7E7D7D838B8B8981776D0B
:103D78006A707E90989C999385786F6B737A899214
:103D88008F82716560616572828D93979794877E43
:103D98007479828E98959182756356515D6F7C8691
:103DA8008A8983776F6C728493A3A19D92897D71B0
:103DB80070788B939793948D79615254657C8B8B33
:103DC800897F726C6A747F8D8F93939894826D5CEF
:103DD800687D949C958C8681776D6975808B989F9A
:103DE800AAA27E5C4D6282958E807A78766C696A2A
:103DF800777E85929AA4967A5E57677F867B797BD1
:103E080082806C5F6A7E8C96A2AFB49B775F688471
:103E180095917F8184857868676F70717989A09B97
:103E28007D5E57677E8B898993928773646A737CFA
:103E3800889EB3BC9F765E6987958F7F8286877CD4
:103E48006F6F746F687792A69669454B6983898509
:103E58008B9593887E7980828390A5B09D6C40373E
:103E6800527284817D848A847D7E828580869FBF0C
:103E7800C19B674D5D757F7B78838D8065575D69D4
:103E8800717992B7C7A974525B7E908C83878D8BAA
:103E980079666368717E8DA9BCAE8A6453617D863C
:103EA800898E999A8B725C595D718AA5B3A57A57E8
:103EB8004F576E7E8B979E988C7C747568606A8865
:103EC800A2A38560585F6B71798A9EA092837372F2
:103ED800777D89A1B6B89D705A5B6D7E827E7F849E
:103EE8007C756B67656870849FA99D7E67616C7837
:103EF800838A8C908D8B88827B788099B7B59874EB
:103F080060626E7B8187857C75737477736A6A7566
:103F180091A4987A686678878D9493908777665F7E
:103F280061626B7E98AC9C765C5D718792989E9E70
:103F3800978D7F767770727F90A6A17E5F505060D4
:103F4800707B878E8E89807370757E92A8B5AE90CF
:103F58006856535C6E7C8B96958C87818280787DC1
:103F680095ACAD977B6C6866606776868B7F6F666D
:103F780066696B728BABB2A1826D7780858685830B
:103F8800847D73696A7173767A8A99947E6D69758E
:103F980081848C8E8D8B817D7C76758090A5A9908F
:103FA800735E5B62717D87918D8176767D83787192
:103FB8007C93A4977866666E7F82849096958E7BB4
:103FC800727773707A96B4B28C6155627684818305
:103FD8008A8A827C747A7A6D70809BAB99756461E9
:103FE8006973716F757F7F7C75747B7A7F8FA7B5D6
:103FF800AA8668697687908B8B8D8379716D7B77BC
:104008006B6E7E97988266606D7D848C9196937EA8
:1040180071666870697188A3B29E755D637A939EB4
:104028009D9DA097877B767D7464657EA3A7855741
:10403800444F667A83898E908480747782787E8EE6
:10404800A4B4A2755046556D7C868992948A827470
:1040580076716A7A93B5BEA37966606D797B858936
:104068008C7C7266656C636C829EB1A98C766D6E71
:104078007778808B96998B7E72756D636F88B0B9EF
:104088009A726568787F7B848C93877C777A7E6F59
:1040980067718EABA68060586278787C8A929C8F14
:1040A8007D6E6E6C62697E9FB29D705E6379888258
:1040B8007D7D8489817C7C7D7B757B92ABAC8E6CAD
:1040C8005B5A707E848B8C938D7D70707779788540
:1040D8009CA49670585965777A7F7F848E8A878BDF
:1040E8008B897F7E9AB6BDA0735B57667B7E87857A
:1040F800817865636972776A7399AAAA86686F7C02
:104108008B81757A7F8477656D71706C6B8CB1B9B2
:10411800A06551627A9A96959CA29A79676C787E86
:104128007068869DA17E5051657D82747E90A098AE
:1041380076676C7B81798CADB9AB6F474F698E9888
:104148009393929788726E7887827489A9B79E63D1
:104158004A4B5E76767A848B867467616A7A7F9238
:10416800B8C7BA85534F5A7788868B8D92887870EE
:1041780068645E5E82ADC2B77A5B5E6275777E9276
:10418800A2A0806C6C70756C729DB9BC96605D6401
:1041980073786A748997927A6E6E77725C70A5C626
:1041A800CA9462626D86837A87969A846C68737FF4
:1041B800715D749BB39E675863788B7C7682969CFE
:1041C8008E84777877646587A4A87B4B4C5E81875B
:1041D80078797D84817A7E8C9A908093ABB09C6C40
:1041E8005C6C7D8778767D84816F68697A80768358
:1041F800A7B7A8734A5166878B80848A89716067DC
:104208007F98917E93B6C2A56F606D848F828694E5
:10421800A18F69524E636B607096ABA56F4645627D
:104228008C93989B9C9E856F6B7482746987A5B6E6
:104238009C6650506672748497A99C8074727570DD
:104248006684B3C7AF71524F677B767D848D8E7855
:1042580070787E7E62608CB0BB93645A6887807683
:10426800879BAFA682727880796A86ADBC9B5F4ACD
:10427800537988756E707B82736A737D8378819CAD
:10428800B2B0836C6B778F857B7D7F847B66626938
:104298007170789BAAA6764E546A939B91939287E5
:1042A800796C6D7E897E6F8EACB393584F5D7C8F31
:1042B800868893998A705F616F74697EA4B4A766D3
:1042C8003E4769949C9B979A98847777828C8382DF
:1042D800A7B7B5854B404866717580898E7F6D6933
:1042E8006C6F7275A3D0D2A964494F6D7D7A8388AB
:1042F8008C7E65616E75705E73ADCCC2855D5D77D1
:10430800928382909EA48B6B6A706E5D5887B2B957
:10431800874B415888928383868E88706B7B837D18
:104328007189AFC5AC715B5F7F9589898E94937FE6
:104338006E71746E6378A0B19C5A3B44638A87841B
:104348008F91887769778C8D7876A2C1BD7E454537
:104358005C80847A889D9F8661587080766D90B65F
:10436800C69C4F374977928D8F959B8E6F5A657A89
:10437800827487B2CCC27E50455875787C8C9A95E9
:104388007D63636D756D79AED2CB8D58536A8B8D15
:104398008A929A917B62606E6D5A517FB2C89F5D16
:1043A800465176848291A4ADA5856C72766C576D62
:1043B8009EBAA55F3C43678480808A928F82727B15
:1043C80085806E73A1C9CD9162565B7473728592B4
:1043D8008E806A67757B767297BABF8F4F44517724
:1043E800897F899896876F6578837D6C87BED8C7E3
:1043F8007E56596A807E849DA6927151566969607D
:104408006999BDBA793F41577C898999A79F836388
:104418005C6F756D688FBFD3B66D504F5D707588D2
:10442800A7AB94785F65706D6984B5C5B2744D515A
:104438005B686C7E9EAA9A826C6E7667565D93BCAA
:10444800C19C6962696C697194B4B29D8274817F00
:104458006F627CADBDA66C4D5764685F688A9A8CA4
:10446800786572847963639ACACAA2736F746F6736
:104478006680988C7A6C66787A6A6483ACB49B6F31
:104488005E6A6F757C8DA39D8A7B696B75706368A6
:1044980092B0AD896163727579859EB1A5896E63A5
:1044A8006C70686588B2B3976B575F5E637796B335
:1044B800AF9A88776E706F6A77A2BBB59D76655C98
:1044C800505161819A998F817474776F677DA6B412
:1044D800AA896B675C53596D8D9A90857E7E817928
:1044E800676689A3A39F908982706B72818C8D8582
:1044F8007D7774736E636C8994928778756C656B3D
:104508007A88898889867F7D7E7C7B8CA2A9A79AF8
:104518008E82746F7077817E7D81786E706D65692B
:10452800809297958C847E7068717D838791968D33
:1045380082777068677B8987898886837871767BBC
:104548007B7F8D97928A84847A76858C8682828115
:104558007A695C5E6C727A8C96968A80867E79849B
:10456800898782868C897D706C787F818A95968808
:1045780083837E7A787D86878A8E847667626A737B
:1045880074767F847E797B807E757887969EA4A4D6
:1045980097867B77746D6A7074737070736D6564D9
:1045A80075888D8E90908C8988867D7D8488898D8C
:1045B800928B7F7574767C89867C7C80807E736E16
:1045C8006F6C757E7F888D81787F888989888B89D3
:1045D8008B918B7E797574767A858B8B8B867F82AF
:1045E80084796D71777B7E81807A797C7B7982870B
:1045F80087848B8D8276736C656A797776808886F6
:10460800838B8E868084868E9291897E7D7E776F5D
:10461800707773757A80858482786E7686818183D7
:10462800868988817D7672787B7A82929690868454
:10463800858385867E8B9C99918B7F7A786E6A7349
:104648007672716B6B6D706B6772878B94A09C959B
:104658009A908387857C747470757873686E7575A5
:10466800767D80808B8E848B9A9189847F7D8580EE
:1046780076727C807B767370717B75758A938A8E6F
:1046880089848A8E7C737B828683817C7D7B7D7323
:10469800758687848981828E887A7C848183807DEF
:1046A8007D82827D77768077747E82878F847E890B
:1046B8008E8781786A6A6A6B6F7D8588847E878534
:1046C8008287818294968D84807776756D727A7CE4
:1046D800797B7B8182757A757791978E8E8B8182B3
:1046E800847D86908479727677766D6B6F6F82851C
:1046F8007980857C838B89909A948F93918B85821E
:1047080080878989857577756169787A8088827CE0
:10471800847F726F6E6D7176797A7A7B7F75798A0C
:10472800878F9C9995A29985848A857F7F746B6A07
:1047380068646263706D6E7E797D8C8D828D9C9AC3
:104748009CA5998E90887D7A7F7C79737372696E47
:10475800696372837F828B837F8787808E958F8F33
:10476800918D8C887C7A747F8073727872686D6D95
:104778006E7F887E7F827C797B777C8C949A9791F8
:1047880090837E8381808C8E8281867868655C5D6B
:104798006B72747C7B7A7971767A82939E999BA3EB
:1047A800998D908C8487837C7B756868625E6A6B60
:1047B8007179778089807C89918A939D94938F857C
:1047C800828280878D878A877C766A68767E767B08
:1047D800867A7A81746A6F717078767C88807D7F3A
:1047E8007C868C8B9599908992887E8D887A79774A
:1047F800737368626C6F7079797B80797F8B8B8B30
:104808009A9B929EA0928680797D7A747C7A737442
:104818006D686D6B747C7B7B8A9282868E8B8C90A4
:104828008C90908789858085857978707179716396
:1048380067736E79807B7B807A787F8391908B9386
:10484800989190837F868886878E83878470656C2D
:10485800706D6E6C797C7673716C73757580888FEA
:1048680092978A919A8F85838582857D7C7A777CD9
:104878007C72747A787B787B828C818390867F8344
:10488800837D81868C8880868C81787C81878782ED
:10489800828A7B7880716B71776E6D727D7D6E6EAA
:1048A8007C7E8188858E94918B8F898A9B89787B81
:1048B8007E776D636A7571777F7C7C827D7C80866C
:1048C80090998F8CA49D8B807A797774788079768B
:1048D8007A70656D73797A7A7D8C8E808D8D8588F6
:1048E8008C8E8F8F8E8F878085887E77757579758A
:1048F8006E6F7165757D76787673717479858A8542
:10490800898F8C8A8E8C8A89898F968D8D8D7D77FB
:1049180076757372707679737577726A676F787C5B
:104928007E80868183908B8A89868787898C8E860C
:10493800808285807A7A7C7A7A7E83838288807B7B
:104948007B767A7B797E888D898685827D7A838657
:10495800848787827C7E79737066687072777679CF
:104968007D7C868E8F8D969E959495938A85837B84
:104978007C75645F5E5D676A72717480817A78881D
:104988008E898B959C9EA0938D8B8380807A808165
:104998007E7F7072776F646B7C7E7C7A7C7D868983
:1049A8008083847E82837F8B898C867D8A8D8378C1
:1049B8007B7F82818281828C847E797272746B6E35
:1049C80075788478747B7E7E828B8B929596909690
:1049D800978B8A807274776D6F6669706B75757363
:1049E800717B7E81878C908F97929294867B7B7A5D
:1049F8007F827C8077757A7370747D7D7F7F8889EC
:104A08008C897B8184828285848C8C898882898741
:104A1800807D8188857B7575767F7B71726B666C0E
:104A2800686A76787E7F889593928A8D9494969614
:104A380092908F827F7768686760656B6F706A7025
:104A480074787E858E8F9194999698978C8F877EAF
:104A5800847F79756E7071747B7975747D828280BC
:104A68008483858B868B8A827E79767D807F7F782A
:104A78007B8180787C80818585878A8D89817C7A15
:104A88007A77706F72747D7B747B807F8387888F61
:104A9800908D8C8D908D897D7B7C75736E67686F2A
:104AA8006D7179797F8282878C9297959494929090
:104AB80089827C777573706F6D6C7172757A7D8081
:104AC8008284888B8E908B8C8D8B8A8B8A88878446
:104AD8007F7B7B79787B7B7D7F7D7C7A7676777729
:104AE800797D7A7878787A7B797C808085878686E4
:104AF8008887878C8C8A8A8884837E7A76716E729E
:104B0800747374737376797A7E82858B8E8F9291A3
:104B18008D8B8A87898885807A76747373747575A6
:104B28007777777B7A7C8083888E8D898B8A878755
:104B3800898583837F7D7F7B7774717376797B78B2
:104B480078797B7A7E84868988878989878485862F
:104B580085868B8B86807D7C7A7875747474727484
:104B680074706E7174777F86878989878B8C8D9036
:104B78008F8B898988837C7676737379797779784E
:104B8800797D7E80828383868A8682827E828689F8
:104B98008B8681838481838280807F7E82827B78FA
:104BA800787472797C7B7B7B7B7C7C7B7C797D8356
:104BB80084868484868683858A87807F7E7D7F7CC1
:104BC800797976747879797C78797A787E83818333
:104BD800898B8C8E8E8C8B898586837D7C7771758D
:104BE8007475767372777D80847F7E8283868C8EDF
:104BF8008D8D8C898C8D89858180817F7C7C767177
:104C08006F6B6D71706E7072787C7F807F858B940E
:104C1800989796979695928C8B86807A736E6D6C22
:104C2800615F62686F7172737A7E858B8C8F9092E8
:104C38009596918D8A8685858484807A74706F7143
:104C48007576767A7D828B8C898683848A8B898730
:104C5800868685807E7F7F7B7B7C7E827E7C787863
:104C68007A7F81818181807F7F7D7B7A7B7C7D7B60
:104C78007A787675787C828685888785838583822D
:104C8800817F8284817E7872706F71737475767893
:104C98007C8086868B9095999C9891918B88847E50
:104CA8007A766F6C69686A69686A71767D838589C6
:104CB8008D9293989B9A9C97928B85817F78726F3F
:104CC8006B6A68676667666C777D7F8187898E9176
:104CD8009395979797928D8D857F79737576716B7C
:104CE80068686C6E737578808589898A8B898480F9
:104CF80082858684807C7A787A7A797A80838183BF
:104D080083838481858D8F8D88837F7F7C7A767479
:104D1800737676787F82808181868D8F908E8D8E56
:104D28008E887C787777746E6B6D6D686A6F767F26
:104D380083838286888E8E8E969C9C958B84807BBE
:104D480074706D676464656D777B7D7B787B7E822C
:104D58008994999A968C88888687837D79777675E1
:104D68007F878A897E77736F737B858B8A82797553
:104D7800767A7F7F7D7D7B7F858F96968F857C7405
:104D8800767D858B8D887F756E6E6F716D6B6A6EA3
:104D9800757E8B92958B837B7E8A96A1A5A295883A
:104DA8007C756D69656360637079868A8B847E77AC
:104DB800717B88979E9D93877E77746F6C6969680D
:104DC80074819299958A7D7B757D86959D988D7E57
:104DD8007570716F6F6E72717C87919C9893817EEC
:104DE8007B7F8B959D92857167656F71726C666527
:104DF800697A82918F8A7970737D95A1AFABA28E03
:104E08007F7070716B675E5F6277818E8D83776369
:104E18006469859DB3B3A2918179787C77786D6C4C
:104E28006C7B899195877B66696E7E909EA2927F46
:104E38006E707482808079726D70828D9D97907C7F
:104E480076798190989B8B7C696A6E7C7A73716E97
:104E580070717F848F89817069718095A4ADA092EB
:104E680078726B757B787B7577737F818781796DB5
:104E78006468758A99A79A907D7B797A7E74767032
:104E88007674818A9291877D6D6D70818DA19D96D2
:104E9800837777737F7377707878808E949D918A03
:104EA800797C7E8E949C97867B666D65726C6C6A45
:104EB8006B716E7B7A86818477777D8A9EA4AE98A3
:104EC80091777774787E75766B756F7D7E7F7A7251
:104ED8006C6271778F98A69F978D80827780777C98
:104EE8007C7E81818A8583756E5E626C7B8E979FDE
:104EF800948E7D7A757A7D787B777F808C8F8C8491
:104F08007A73707A828B8D918E8C847C716C7575B6
:104F18007C787373757E84847E7A7277808E94979A
:104F280097908F847E72787D7E807476717778789A
:104F3800726D6D69767A8A8E9797989183786B7C73
:104F480082918C827E7882818678706668717F8F84
:104F580090978E90847C6F6C767C8C87898284870E
:104F68008F928B84757576889195948C89736C5B18
:104F78005F6871786F716C7D8594918C7C75787C95
:104F88009691978D928F8379656A6C7C7E7670682E
:104F9800747E928F89736D6C7C9A9AA190908783A6
:104FA8007D7273747D7E7F7976797B85828172705C
:104FB8006D7B9597A4918E817C78787C7D838082A7
:104FC8007678747C85827E71707180979CA5938EAB
:104FD80084777269645F687483837C757B8A8D8A41
:104FE8007A6C6D7C9FB0B3A08E817578736D615EAD
:104FF8006B7C8274686577858A806D676D8EA3AFD8
:10500800AC9D9285847F786D66707D897E7A768383
:105018008B85785C5E67889AA6A0958E86817B7B57
:105028007778838F927C6F6977908E8765636685C2
:10503800969B92817D767B7C7C716B7684958B7D4B
:1050480079778E8A8A6A5E5E79939F9E8B806E6F6F
:105058006C706C6A7183938D7D77718A8D907A6E8E
:10506800778CA7AAA691877F807A746A656E818DEE
:10507800876E6B69868D8A71555C749AA5A7928D27
:105088008A8E887D726A7587999178737089948DF4
:1050980074595D72949B9A837D7A7D786D66606F92
:1050A80083928674767F9BA59D81696B819EA0986B
:1050B8007F787A7C75685A58687D897A6B6D7C949C
:1050C8009C937E6D768DA9ACA38C8182827C6C606A
:1050D8005F7182887469717C8F8E827069738FA505
:1050E800A9A3919092948674656A7D8A8771687085
:1050F8007C857B6454536B8B9EA3988D8D918F7F99
:105108006F657083918B7A787E898D7F6C60647C03
:10511800919793887F7D80786F68646F787F776FC9
:105128007985908E8276778BA3ACA99E9793928B84
:105138007D6E6267737B786865737F847664596473
:105148008297A198928E8E94897F757685909183A7
:10515800787E838579655A59748492918A8F878974
:105168007D716C6C808B8A827580939C9479685C65
:105178006C80868E858A848383746C636D7C81825F
:1051880072748B96A28E7C6F6F868A9D9997918098
:1051980083746C615E6C71766D667E92A2977E7385
:1051A8006B879199A097998A8F887A72677C848A8D
:1051B8007C65718090876D5D5370838F998E928224
:1051C800807F74756A7D878C8A73818C9A937768DF
:1051D8005D76878A908992877B786C746A72787812
:1051E8007665718190907B6F67789297A6A3A9A145
:1051F8008F897A7E717171716F66727E8785776C1F
:10520800626D838B9B999A9687827C827D8083834B
:105218007A6C6E7A86847A6A666F83858E8F8F91B0
:105228007E7C7A7F7E7B818A817B7988938F826876
:105238006A738B86878584867065646E767A808CBF
:1052480081817B848A857F6C737E999894939395EA
:10525800806F6C727B787679717C7C8A8B847C67B2
:1052680071788D898B92959A8477777D847D8182F8
:1052780078807F918C817865757A8C87878F8F8C01
:105288006F666B737E787B7A737A768887837B7197
:1052980083909C958F90918A73656A727A767978F3
:1052A8007076707B7B7C756A778A9C9C9FA5A89D8D
:1052B80084767778776E7375757C78837D766A6087
:1052C8006E7E9193969F9D967F7479797D747D7C8F
:1052D800797E7C86807B6F64717F8C8E8B93928EB7
:1052E8007A737C7C81767B79777D7D8D8B877C71E9
:1052F8007C87918E878E8C846D616C6F7B737A7BD3
:10530800787E7A86837E716876849398939B97914A
:105318007A6F7977847E817F7D847E858682796ABB
:105328006D74808B8892938E7B6A73747B76767AA1
:105338007C898C9498938573727B838F8D939691D7
:10534800826B6E6B6C696B727073747F8A8E887CEB
:10535800777F8591929197918A736E747577707241
:1053680070707276838B877B737B87909796A0A4E7
:105378009E89767A7C7C7876726A66636C7A7C74AD
:105388006768758496999EA19E9580808383847FA3
:105398007E7A7A79767C807B71676C75838E90983B
:1053A800989584777C7F83817A76737472757C7A1A
:1053B800736A686E7A878D9093938C807D7E8182E4
:1053C8007E7C787C81858B8E8C847D797B818786B9
:1053D800858788817D7F81807A706B696C6E707437
:1053E800747372767D818A8F8C8E8F8E8684848783
:1053F8008A8B8A898B8D8E8D8F8A8581808385841F
:10540800817B797B77716D6B6A696969696B6C6E91
:10541800747A777779818C92908E8B8C8F8B85823A
:105428008181838384858A8C8D8D8E8A88878A8CF6
:105438008B867F80828680756B645F5C5B5B5E6356
:1054480067696E74787E838790989999989B9F9ED8
:105458009A91908E8E8882807F7B747173767A7B26
:105468007E83868786828387857D726964625F5DB5
:105478005B5C60646B737A7F888F93999A9C9A9926
:105488009B9C988F868483817D76767879797878E5
:10549800787C7F8185878C908D8A8B8A81776F6DE8
:1054A8006B686361676B6C6B6D71747A7F858D90C7
:1054B80096999DA7ACAAA19A999792887E787673B7
:1054C8006D6A6664666B707577797E818487847D82
:1054D80077777A787673747473716D6F7378808563
:1054E800898B8E989EA0A09E9A9694938F89817A94
:1054F80073706D6663666C72777678797C82807D6E
:105508007B7877797C8283837F7A7B7C7A777C82CD
:10551800858A8E9195999D9C949291908B84827E98
:105528007A716B66656565696D7070767B8487894D
:105538008C898A8B8B868583827B78716A6B6D7187
:105548006F70757C868C8F92969C9E9D9C9B979184
:105558008981776F6765696E706E6C6E7274787822
:105568007E82858A8787898B847B7877797E7D7E22
:105578007F807F7F8387898B8E949695969393956A
:1055880091867C737170706F6C6E6E6D6D6D6F6EE1
:105598006F74787F82888C8D8B87827C787C7F8300
:1055A800827D7C797A797A7D838B93999D9FA09D62
:1055B800958B857D74727273716E69696B6E706F8D
:1055C8007072767D82868D92928D86817B78787BCB
:1055D8007F818181838685838081888E959698993D
:1055E8009992877C7372717373726F6D6D6E6D6B48
:1055F8006A6B6F767A7D7F848A8F92908C8A8D8C85
:105608008A8582807F7C7A78797B7B7C7E808386A2
:105618008C9091928E8C8887837F7D7977706A666B
:10562800646769686B7072767B80858C91939290C1
:105638009090918F8B8682807F7F81828183848303
:10564800818285878987817D7A7B7A787572717185
:10565800706F6F7377797D7F7D7E82868A8C8A876B
:1056680086898A867F7A797A7B7A7A7D8282807F38
:105678007C7C7E83898F9494908D8C8B837E7978C3
:1056880078777470706D686667696C727980878ADC
:105698008C8D8E93938F8B8888888B888788858359
:1056A8008183828081848888888683807D79726CF2
:1056B8006A6A6E707070727373787B7D80878C8D68
:1056C8008C8B8A8B8B86817D7C7E8284848382808E
:1056D8008185878885868B8D8C88837F7D7C777292
:1056E8006D6B6D6F716D6A67666C73787C7F868B86
:1056F80090929493929495948F8A898C8E8B847CC3
:1057080077787B7E7D7B7A7C7F817F7B78787977E1
:10571800716A676B737573706E757E85878A8D91F4
:105728009697989691908C877D7572727778767235
:105738006E737A7E81858B9195918B858184858323
:105748007971727678756E69686D73777B82868BEE
:105758008D8A8887878A8E8F8A84838586868583C3
:1057680081817F7A7A7C7E7E7E7A797B7B7B7C7E68
:105778007A7677797E81838280827F7C7C8185843A
:10578800847E807E7E7B797A76757576797E808256
:1057980083878485889096989993918C8A85817E51
:1057A80074706E6E70706E6A6B707073757C8186C3
:1057B80085807F7B7E7F82817E8084898D8F90919A
:1057C80093979492909192928A817A747473756F78
:1057D8006864656B71737170757D7E7E7F83888B5D
:1057E800878382838485867F7B787B7F848787878E
:1057F800888B8C8B8A8D8D8F8B8883827E7A766E50
:105808006C696C6E727474747475787C83898B8A15
:1058180085828082817F7E7B7C80868A8B88858753
:105828008D9193929494938C807973726F6D69675C
:1058380064666C7376747579828C92959693938B63
:1058480085807D7D7D7D79747071757A7A79787DB2
:10585800858F959693908C86827F7F7F7E7C7A76E3
:105868007373777A7A79797A7E848A8D8C86807B4D
:10587800797979787474737476787D8084878C905C
:10588800969CA09F988F867C7671717270706F72EB
:1058980074777675787C858D929596938E857B73D3
:1058A8006F727677757575767774726F7278818B8B
:1058B80090959695938D877E7879797D7F84878575
:1058C800817B77747377828C94948C89847D766DD0
:1058D80068656667666B6F767A7C80858B9395952D
:1058E80095919294979893898079757171767D8353
:1058F8008383817B787B7F7D75706E707577777613
:1059080074777473746F747D878D91939BA09B8F4C
:10591800837F808B9093918E8D807267666F777886
:105928007675767E7E79716C73767D7770747A83FE
:1059380081797B808A8F89888B98A8A89D8A7F85A2
:1059480082867F7B8282846F5E5C647680828484B8
:1059580086897B6E5D607B8B9C928C8A807C65617E
:10596800718CA7AA9D928B8B8774685C63777A8108
:10597800767A847F76595568819596959FA8AEA1C9
:10598800806D60728789968E99937B613B425D7CBE
:1059980096928E9494947B665F59747F82827B91F1
:1059A8008C7E6B61778594A19EA2A2A4A48D7F6D45
:1059B8006E7C7C7E7A7D8479664E4C62788A95927C
:1059C800918E8C82716A5F6D7F827D76818881710C
:1059D800696F80909AA099989BA0998C837A7F820E
:1059E8008183878E8D765B4B4C5960748689898854
:1059F800888273625F6875788399ABAD907F7270A7
:105A0800797C949DA1A5ABADA38971646168637627
:105A180088A29E755B4444495877818C9CA8A795B9
:105A28007567616B6B7194AFC8B498866C665D6678
:105A380073767F91A1A7987D6D585C4F6386A4BC4F
:105A48009D8A715F58546E838B96A2A8A1856C605D
:105A58005D66607A94B1B7988A6F676463757E856E
:105A68008F9CA39A8070626162607E97B3A78875E5
:105A7800615B58678495A1A9A7A08A7167616C6E5C
:105A8800738B97A9957E705F60606F8388888F910C
:105A9800917F6B635B66616F8BA3B6A38F7A68682F
:105AA8006E889EA5ABADA6997F695D575E586880E4
:105AB80095A186716155595D6F7D818898A3A593DD
:105AC80082746B706B809AB1BDA78E7864646B82A8
